:020000040000FA
:100000000C9462000C948A000C948A000C948A0070
:100010000C948A000C948A000C948A000C948A0038
:100020000C948A000C948A000C948A000C948A0028
:100030000C948A000C948A000C948A000C948A0018
:100040000C9463140C948A000C9431140C940B14CB
:100050000C948A000C948A000C948A000C948A00F8
:100060000C948A000C948A00000000080002010031
:100070000003040700000000000000000000000072
:10008000250028002B0000000000240027002A0083
:1000900000000000230026002900040404040404D6
:1000A0000404020202020202030303030303010227
:1000B00004081020408001020408102001020408F6
:1000C0001020F21411241FBECFEFD8E0DEBFCDBF49
:1000D00011E0A0E0B1E0E6EAFFE302C005900D9276
:1000E000A23CB107D9F723E0A2ECB1E001C01D9218
:1000F000A635B207E1F710E0C2E6D0E004C02197D0
:10010000FE010E94C51DC136D107C9F70E94A41582
:100110000C94D11F0C9400008CBD9DBD089520E36C
:10012000FC0120833296862F82958F706F706A3023
:1001300030F4605D6293682F8111F5CF0895695C9A
:10014000F9CFFC01818D928D08950895AF92BF92F1
:10015000CF92DF92EF92FF920F931F93CF93DF9393
:100160006C017B018B01040F151FEB015E01AE18C2
:10017000BF08C017D10759F06991D601ED91FC91E4
:100180000190F081E02DC6010995892B79F7C50111
:10019000DF91CF911F910F91FF90EF90DF90CF9063
:1001A000BF90AF900895FC01538D448D252F30E012
:1001B000842F90E0821B930B541710F0CF96089574
:1001C00001970895FC01918D828D981761F0A28DA1
:1001D000AE0FBF2FB11D5D968C91928D9F5F9F7367
:1001E000928F90E008958FEF9FEF0895FC01918D1D
:1001F000828D981731F0828DE80FF11D858D90E08A
:1002000008958FEF9FEF0895FC01918D228D892F26
:1002100090E0805C9F4F821B91098F73992708950E
:1002200088E592E00E94040121E0892B09F420E096
:10023000822F089580E090E0892B29F00E94100120
:1002400081110C9400000895FC01A48DA80FB92F12
:10025000B11DA35ABF4F2C91848D90E001968F73EE
:100260009927848FA689B7892C93A089B1898C910D
:10027000837080648C93938D848D981306C002885C
:10028000F389E02D80818F7D80830895EF92FF9226
:100290000F931F93CF93DF93EC0181E0888F9B8DA9
:1002A0008C8D98131AC0E889F989808185FF15C063
:1002B0009FB7F894EE89FF896083E889F989808186
:1002C0008370806480839FBF81E090E0DF91CF9155
:1002D0001F910F91FF90EF900895F62E0B8D10E077
:1002E0000F5F1F4F0F731127E02E8C8D8E110CC0E6
:1002F0000FB607FCFACFE889F989808185FFF5CF31
:10030000CE010E942401F1CFEB8DEC0FFD2FF11DEA
:10031000E35AFF4FF0829FB7F8940B8FEA89FB896D
:1003200080818062CFCFCF93DF93EC01888D8823CB
:10033000B9F0AA89BB89E889F9898C9185FD03C048
:10034000808186FD0DC00FB607FCF7CF8C9185FF2D
:10035000F2CF808185FFEDCFCE010E942401E9CF4D
:10036000DF91CF91089590E0FC01E859FF4F24916F
:10037000FC01E255FF4F3491FC01E656FF4FE4913A
:10038000EE23C9F0222339F0233001F1A8F4213003
:1003900019F1223029F1F0E0EE0FFF1FE458FF4F72
:1003A000A591B4918FB7F894EC91611126C0309566
:1003B0003E233C938FBF08952730A9F02830C9F021
:1003C000243049F7809180008F7D03C080918000A8
:1003D0008F7780938000DFCF84B58F7784BDDBCFAC
:1003E00084B58F7DFBCF8091B0008F778093B00074
:1003F000D2CF8091B0008F7DF9CF3E2BDACFCF9353
:10040000DF9390E0FC01E255FF4F249186569F4F09
:10041000FC0184918823D1F090E0880F991FFC01A2
:10042000EA57FF4FA591B491FC01E458FF4FC591E5
:10043000D49161110EC09FB7F8948C91E22FE09592
:100440008E238C932881E223E8839FBFDF91CF9195
:1004500008958FB7F894EC91E22BEC938FBFF6CF11
:100460003FB7F8948091C7019091C801A091C9014C
:10047000B091CA0126B5A89B05C02F3F19F001967F
:10048000A11DB11D3FBFBA2FA92F982F8827BC01EE
:10049000CD01620F711D811D911D42E0660F771F16
:1004A000881F991F4A95D1F708958F929F92AF9216
:1004B000BF92CF92DF92EF92FF924B015C010E94BC
:1004C00030026B017C010E9430026C197D098E099B
:1004D0009F09683E734081059105A8F321E0821AC7
:1004E0009108A108B10888EEC80E83E0D81EE11C6F
:1004F000F11C81149104A104B10429F7FF90EF903D
:10050000DF90CF90BF90AF909F908F9008952FB7BE
:10051000F8946091C3017091C4018091C5019091DC
:10052000C6012FBF0895FC0120812EBD9B012150E3
:10053000310941F051810DB407FEFDCF4EB55EBDCE
:100540004193F5CF61507109860F971F0DB407FED7
:10055000FDCF2EB5FC0120830895E091CC01F091F0
:10056000CD0180819091CB01892B80830895E0910A
:10057000CC01F091CD0190818091CB0180958923B0
:10058000808308958EBD00000DB407FEFDCF8EB5AB
:100590000895AF92BF92CF92DF92EF92FF920F93A6
:1005A0001F93CF93DF93CDB7DEB728970FB6F8949C
:1005B000DEBF0FBECDBF8C017B016A018091570267
:1005C0008333E1F45801A40EB51EA016B10609F458
:1005D0006FC00E94B70280EF0E94C202812F0E946A
:1005E000C202802F0E94C2020F5F1F4FF70181914C
:1005F0007F010E94C2020E94AD02E7CF5B01A40E00
:10060000B51E8433C1F40E94B70219830A838D2D6D
:1006100080688B83CC8264E070E0CE0101960E94FA
:100620009302AE14BF0409F441C0F70181917F0128
:100630000E94C202F6CF0E94B7020F3F110509F0D7
:1006400028F419820A8384E08B830CC017FD17C03D
:1006500019820A8333E0169507953A95E1F7007EF3
:100660000C600B8386E0C816D104A0F5F701DE010B
:100670001496EA15FB0599F081918D93FACFC80184
:1006800026E0969587952A95E1F7807E19830A835F
:100690000115104C10F48461D7CF8C61D5CFB60111
:1006A0006D5F7F4FCE0101960E9493020E94AD02C2
:1006B000C60128960FB6F894DEBF0FBECDBFDF91FE
:1006C000CF911F910F91FF90EF90DF90CF90BF904F
:1006D000AF90089563E070E0CE0101960E9493020E
:1006E000F70181917F010E94C202AE14BF04C1F7DD
:1006F000DDCFCF93DF931F92CDB7DEB7898341E083
:1007000050E0BE016F5F7F4F90E080E00E94C90221
:100710000F90DF91CF91089590E0209157022333FD
:1007200039F40C96982F990F990F990F80E008953E
:100730004896F8CFDA01E091CF01F0E0FE2FEE27E6
:10074000E60FF71F90E0982F8827A901BD018E0FB3
:100750009F1F0C94C902CF93DF9300D0CDB7DEB7B3
:1007600079836A8322E030E0AE014F5F5F4F60E142
:1007700070E00E949A030F900F90DF91CF9108953F
:10078000CF93DF9300D0CDB7DEB779836A8322E0C1
:1007900030E0AE014F5F5F4F64E070E00E949A036B
:1007A0000F900F90DF91CF910895CF93DF931F9219
:1007B000CDB7DEB72091CF0130E0322F2227260FB0
:1007C000371F90E0982F8827498341E050E0BE0111
:1007D0006F5F7F4F820F931F0E94C9020F90DF91BE
:1007E000CF910895CF93DF931F92CDB7DEB7698382
:1007F000DC01ED91FC910280F381E02D41E050E0BD
:10080000BE016F5F7F4F09950F90DF91CF910895E3
:10081000FC019485FB018485981303C081E094302A
:1008200008F080E00895CF93DF931F92CDB7DEB735
:100830006983DC01ED91FC910280F381E02D41E0C0
:1008400050E0BE016F5F7F4F09950F90DF91CF9110
:1008500008950895FF920F931F93CF93DF93EB01B9
:10086000FC01178A168A2A81211109C02B812111C6
:1008700006C02C81211103C02D81222301F14115D5
:100880005105E9F08A01FC01F08C80E591E00E94BD
:100890008C00AE014E5F5F4F24E030E06CE070E012
:1008A0008F2D0E949A03B8018F2D0E94AB0381E027
:1008B00090E0DF91CF911F910F91FF90089580E01C
:1008C000F7CFFC01848595850895FC01848995897D
:1008D000089526E831E0FC0131832083FB01408943
:1008E000518962897389FC014283538364837583D0
:1008F0000895DC01ED91FC91048CF58DE02D0994B7
:1009000090E080E00895FC01768765870895DC011A
:10091000ED91FC91068CF78DE02D099591E08927EA
:100920000895862F089581E08627089521E0FC012F
:100930008485843008F020E0822F0895CF93DF93E0
:10094000EC0188819981009711F00E94671E19823D
:1009500018821D821C821B821A82DF91CF9108951A
:10096000FB0101900020E9F73197AF01461B570BBF
:10097000DC01ED91FC910280F381E02D09948F92CE
:100980009F92AF92BF92EF92FF920F931F93CF93DC
:10099000DF93CDB7DEB7A1970FB6F894DEBF0FBED9
:1009A000CDBF7C01FA01CB0119A2223008F42AE064
:1009B0008E010F5D1F4F822E912CB12CA12CBF01F7
:1009C000A50194010E94571DF901CA016A300CF576
:1009D000605DD8016E938D01232B242B252B79F795
:1009E00090E080E0109721F0BD01C7010E94B004A3
:1009F000A1960FB6F894DEBF0FBECDBFDF91CF91A9
:100A00001F910F91FF90EF90BF90AF909F908F90AC
:100A10000895695CDECF8F929F92AF92BF92CF9282
:100A2000DF92EF92FF920F931F93CF93DF937C019E
:100A3000EB016C0182E0C80ED11C4701E5E08E0E8F
:100A4000911C10E000E0F60141916F0150E070E070
:100A500060E02AE0CE010E94BF045C01E881F981D8
:100A60000190F081E02D6EE2CE0109958A0D9B1D6B
:100A7000080F191FC814D90431F7F701458150E058
:100A800070E060E02AE0CE010E94BF04800F911F59
:100A9000DF91CF911F910F91FF90EF90DF90CF905A
:100AA000BF90AF909F908F900895AF92BF92CF92DA
:100AB000DF92EF92FF920F931F93CF93DF9300D0BB
:100AC00000D0CDB7DEB78C016B017A01809157025F
:100AD0008333E9F45B016801C40ED51EC016D1064C
:100AE000A9F10E94B7028FE00E94C202812F0E94EA
:100AF000C202802F0E94C2020F5F1F4F80E00E943F
:100B0000C202F50181935F010E94AD02E7CF8433F9
:100B100069F50E94B70219830A838F2D8F778B8323
:100B2000EC8264E070E0CE0101960E949302A7017E
:100B300070E060E0C6010E94C31FE114F10421F0DF
:100B4000B701C6010E9493020E94AD02C7010F9037
:100B50000F900F900F90DF91CF911F910F91FF9009
:100B6000EF90DF90CF90BF90AF9008950E94B702B2
:100B70000F3F110509F030F419820A831B8263E0EC
:100B800070E0D1CF17FD0BC019820A8333E01695B0
:100B900007953A95E1F7007E08600B83F0CFC80116
:100BA00026E0969587952A95E1F7807E19830A833A
:100BB0000115104C18F480618B83E1CF8861FCCF64
:100BC000CF93DF931F92CDB7DEB72091CF0130E0F6
:100BD000322F2227260F371F90E0982F882741E0D9
:100BE00050E0BE016F5F7F4F820F931F0E9455053B
:100BF00089810F90DF91CF910895CF93C82F462F11
:100C000061E070E00E94D50361E070E08C2F0E94EB
:100C1000E0058111F9CFCF910895CF93C82F80E5DA
:100C200091E00E948C0068E070E08C2FCF910C94D2
:100C3000FD05CF93C82F80E591E00E948C0060E114
:100C400070E08C2FCF910C94FD05CF93DF93EC01D6
:100C5000888D843020F40E94190684E0888FDF910B
:100C6000CF910895CF93C82F80E591E00E948C002A
:100C700063E070E08C2FCF910C94E005CF93DF936D
:100C8000EC018C858430D0F40E943206843189F0E6
:100C9000882379F0883169F021E08C3159F4E881BA
:100CA000F9810084F185E02DCE01099521E0892BA1
:100CB00009F420E0822FDF91CF91089580E0FBCFEF
:100CC000CF92DF92EF92FF92CF93DF93EC018C856E
:100CD000843068F40E940D060E9487026B017C013B
:100CE0008C850E943206811109C084E08C87DF91D7
:100CF000CF91FF90EF90DF90CF90089561E070E08A
:100D000080E090E00E9455020E948702AB01BC0186
:100D10004C195D096E097F098D859E85B0E0A0E0C4
:100D2000481759076A077B07D8F28C850E94190675
:100D3000DCCFCF93FC01C08D80E591E00E948C0058
:100D400060E270E08C2F0E94FD0562E070E08C2F65
:100D50000E94E00584FD16C062E070E08C2F0E94C6
:100D6000E00583FF0AC048E162E070E08C2F0E943A
:100D7000D50380E090E0CF91089580E591E00E9456
:100D80008C00E3CF40E162E070E08C2F0E94D5033D
:100D900081E0F0CFCF93DF931F92CDB7DEB741E074
:100DA00050E0BE016F5F7F4F90E080E00E945505EC
:100DB00089810F90DF91CF910895CF93DF93C4E1A4
:100DC000D0E00E94CA06882361F061E070E080E014
:100DD00090E00E9455022197A1F780E0DF91CF912A
:100DE000089581E0FBCF1F93CF93DF931F92CDB780
:100DF000DEB7182F80E591E00E948C00812F0E94C1
:100E00008C0327E0129FF0011124E55CFD4F228145
:100E10003381377041E050E0BE016F5F7F4F820F3A
:100E2000931F0E94550589810F90DF91CF911F91EB
:100E30000895FC01808D843040F4218D328D232B68
:100E400021F00E94F30690E008958FEF9FEF089540
:100E5000CF93DF93FC012485243028F08FEF9FEFA0
:100E6000DF91CF910895EC010190F081E02D008495
:100E7000F185E02D0995892B89F38C850E94F30675
:100E800090E0EECFDA01E091CF01F0E0FE2FEE2707
:100E9000E60FF71F90E0982F8827A901BD018E0F5C
:100EA0009F1F0C9455058F929F92AF92BF92CF9245
:100EB000DF92EF92FF921F93CF93DF93CDB7DEB710
:100EC0002C970FB6F894DEBF0FBECDBF209157020E
:100ED00014E0222339F16B017C0180E591E00E944E
:100EE0008C005E0127E0A20EB11C450110E063E01A
:100EF00070E0812F0E94E005F40181934F01882367
:100F000049F11F5F143099F710E0F50181915F01FD
:100F10008D31D9F08831C9F08A518230B0F01F5F2D
:100F2000143099F7812F2C960FB6F894DEBF0FBEC0
:100F3000CDBFDF91CF911F91FF90EF90DF90CF90C9
:100F4000BF90AF909F908F90089560E170E0812FE7
:100F50000E94FD05A12EB12C83EE93E00197F1F7DD
:100F600042E870E060E0812F0E94D5034FEF62E01D
:100F700070E0812F0E94D503B601C114D10491F411
:100F8000809106019091070101968115F0EC9F0771
:100F900008F45CC0909307018093060160910601FC
:100FA00070910701812F0E94C00386E0E2E1F1E029
:100FB000DE01119601900D928A95E1F7F701838188
:100FC0008F778C8384818D8385818E83A7014E5F8B
:100FD0005F4F24E030E06CE070E0812F0E949A03C4
:100FE000B601812F0E94AB0326E030E0AE014F5FD7
:100FF0005F4F66E070E0812F0E949A0361E070E02D
:10100000812F0E94FD0527E02A9DC0012B9D900D98
:1010100011249C01255C3D4F7901F9011182108258
:1010200022E030E0AE01455F5F4F68E270E0812F63
:101030000E9442078B859C85982789279827F7016E
:10104000938382831682158214826CCF80E090ECA9
:10105000A1CFCF92DF92EF92FF920F931F93CF9386
:10106000DF9300D000D000D0CDB7DEB78C016B018C
:101070007A01FC01808D843010F40E94190686E804
:1010800091E09A838983F60182819381A481B5815D
:101090008B839C83AD83BE83B701CE0101960E94F2
:1010A0005307F801808F8430A0F4F586E486128E11
:1010B000118E81E026960FB6F894DEBF0FBECDBF2D
:1010C000DF91CF911F910F91FF90EF90DF90CF9024
:1010D000089580E0EFCFAF92BF92CF92DF92EF9270
:1010E000FF920F931F93CF93DF9300D000D000D0D7
:1010F000CDB7DEB7082F6B0180E591E00E948C0030
:101100009E012F5F3F4F7901590110E063E070E0CD
:10111000812F0E94E005F50181935F01882341F151
:101120001F5F143099F710E0F70181917F018D3135
:10113000D1F08831C1F08A518230A8F01F5F14309D
:1011400099F7812F26960FB6F894DEBF0FBECDBF5C
:10115000DF91CF911F910F91FF90EF90DF90CF9093
:10116000BF90AF90089560E170E0812F0E94FD056F
:10117000E12EF12C83EE93E00197F1F7402F70E020
:1011800060E0812F0E94D5034FEF62E070E0812F75
:101190000E94D503B601CD2889F480910601909173
:1011A000070101968115F0EC9F0798F190930701D4
:1011B000809306016091060170910701812F0E94C2
:1011C000C00361E070E0812F0E94FD0527E02E9DA5
:1011D000C0012F9D900D11249C01255C3D4F79018C
:1011E000F9011182108222E030E0AE014B5F5F4FC7
:1011F00068E270E0812F0E9442078D819E819827CE
:1012000089279827F7019383828316821582148297
:1012100098CF80E090ECCACFCF92DF92EF92FF920E
:101220001F93CF93DF93EC017B016A018C8584309F
:1012300048F40E943206882319F08C850E940D061E
:1012400084E08C87F70182819381A481B581009726
:10125000A105B10551F490E080E0DF91CF911F919D
:10126000FF90EF90DF90CF9008958F3F9F4FAF4F4B
:10127000BF4F89F380915702811103C084E08C87AE
:10128000EACF70E060E081E20E946B08182F8C8743
:10129000843008F780E591E00E948C00A7014E5F42
:1012A0005F4F24E030E06CE070E0812F0E949A03F1
:1012B000B601812F0E94AB0364E070E0812F0E9491
:1012C000FD050E9487026B017C018C850E9432061D
:1012D000873109F18C31F9F0882309F4BCCF0E94E1
:1012E0008702AB01BC014C195D096E097F098D8530
:1012F0009E85B0E0A0E084179507A607B70738F0F1
:1013000061E070E080E090E00E945502DECF8C85C5
:101310000E941906B3CF81E090E09FCF0F931F93F7
:10132000CF93DF93EC018B01888D843010F40E9401
:10133000190680915702811107C094E0988FDF91C0
:10134000CF911F910F910895B80182E00E946B0820
:10135000888F843030F41D870C871A8E198E81E0B7
:10136000EECF80E0ECCF7F928F929F92AF92BF92B0
:10137000CF92DF92EF92FF920F931F93CF93DF9361
:1013800000D0CDB7DEB7782E8B014A01590122E09B
:1013900030E0AE014F5F5F4F64E270E00E944207B1
:1013A000E980FA80FE24EF24FE24E00EF11E97016E
:1013B000377040915702072D10E0433309F042C0C7
:1013C000085F1F4F102F0027110F110F110FC901B8
:1013D000800F911F4733C9F1A9014A0D5B1D4130B0
:1013E000584098F160E078E06B01C21AD30AA60178
:1013F000B4010E94C902A5014C195D09B4016C0D2C
:101400007D1DC8010E94C902EA0CFB1CF982EA8218
:1014100022E030E0AE014F5F5F4F64E270E0872D65
:101420000E949A030F900F90DF91CF911F910F911F
:10143000FF90EF90DF90CF90BF90AF909F908F90F4
:101440007F900895005F1F4FBDCFA501B401DACF93
:10145000EF92FF921F93CF93DF9300D0CDB7DEB70B
:10146000182F22E030E0AE014F5F5F4F60E270E086
:101470000E944207E980FA80FE24EF24FE2422E045
:1014800030E0AE014F5F5F4F60E270E0812F0E945D
:10149000420789819A81982789279827E816F906B3
:1014A00089F487E0189FF0011124E55CFD4FF58277
:1014B000E482C7010F900F90DF91CF911F91FF90B1
:1014C000EF9008957C01DBCF1F93CF93DF93182F0C
:1014D00080E591E00E948C00812F0E94280AEC0197
:1014E00063E070E0812F0E94E005873121F08C31AC
:1014F00011F0D0E0C0E0CE01DF91CF911F910895AF
:10150000CF93DF93EC018C85843060F40E94320627
:10151000873111F08C3131F48C850E94640A811579
:10152000984088F3DF91CF910895FC018485843041
:1015300010F40C94640A90E080E008959F92AF92BA
:10154000BF92CF92DF92EF92FF920F931F93CF93B0
:10155000DF938C015B01942EE52EFC01C688D788B1
:10156000F08C80E591E00E948C008F2D0E94280A6B
:10157000C92DDE2D8C179D0708F4EC019E01A501F5
:10158000B6018F2D0E94B309F801868997898C0FC7
:101590009D1F978B868BCE01DF91CF911F910F916D
:1015A000FF90EF90DF90CF90BF90AF909F90089505
:1015B0008F929F92AF92BF92CF92DF92EF92FF9263
:1015C0000F931F93CF936C015B018A01FC01C485CB
:1015D000C430F0F57A014130584018F0E12C88E031
:1015E000F82E80E591E00E948C008C2F0E94280A42
:1015F0004C0163E070E08C2F0E94E005873111F010
:101600008C3149F58E149F0460F380E591E00E94CF
:101610008C009701A50170E060E08C2F0E94B30957
:1016200060E270E08C2F0E94FD0562E070E08C2F7C
:101630000E94E00584FD17C063E070E08C2F0E94DB
:10164000E00581110BC081E090E0F6019383828375
:1016500010E000E010C0F12CE12CD7CF80E591E044
:101660000E948C00E2CF40E162E070E08C2F0E948B
:10167000D503EF2841F3C801CF911F910F91FF903F
:10168000EF90DF90CF90BF90AF909F908F90089594
:10169000FF920F931F93CF93DF9300D0CDB7DEB7A8
:1016A000F82E22E030E0AE014F5F5F4F66E270E05F
:1016B0000E94420709811A8110270127102722E082
:1016C00030E0AE014F5F5F4F66E270E08F2D0E9409
:1016D000420789819A81982789279827081719072F
:1016E00049F4C8010F900F90DF91CF911F910F9196
:1016F000FF9008958C01E3CF1F93CF93DF93182FB2
:1017000087E0189FE0011124C55CDD4F8881998135
:10171000009761F480E591E00E948C00812F0E9487
:10172000480B2E81821B910999838883DF91CF9189
:101730001F910895FC018485843010F40C947C0B77
:1017400090E080E008954F925F927F928F929F92F7
:10175000AF92BF92CF92DF92EF92FF920F931F93BF
:10176000CF93DF9300D0CDB7DEB7782E6B014A015F
:10177000A82EB12C27E0829FC0011124FC01E55C5A
:10178000FD4F7F010081118180E591E00E948C0076
:101790000815190554F4872D0E94480BF70126817E
:1017A0008C01021B1109118300830115110529F514
:1017B00063E070E0872D0E94E005843159F08823B2
:1017C00049F001E010E08C3111F410E000E01195D7
:1017D00001951109C8010F900F90DF91CF911F91D2
:1017E0000F91FF90EF90DF90CF90BF90AF909F90C0
:1017F0008F907F905F904F900895801691060CF423
:10180000840187E08A9DF0018B9DF00D1124E55C39
:10181000FD4FE280F380C114D10451F12701F7E0BC
:101820005F22872D0E948C03840D951D2091570205
:10183000273309F453C09801240D351D2130384059
:1018400008F44CC020E038E0490184189508A40150
:10185000B6010E9455052601480C591C6801C8189C
:10186000D908872D0E948C03A601B2010E9455055C
:10187000E00EF11E87E08A9DF0018B9DF00D112492
:10188000E55CFD4FF382E28220813181201B310B28
:10189000318320838681800F912F911D8A3F91058E
:1018A00010F4232BF1F487E08A9DF0018B9DF00D5D
:1018B0001124E55CFD4F1682F982EA8222E030E0D5
:1018C000AE014F5F5F4F68E270E0872D0E949A0380
:1018D00060E470E0872D0E94FD057CCFA801B60171
:1018E000C5CF868377CFCF93DF93FC01218D328DD7
:1018F0002115310529F48FEF9FEFDF91CF910895E6
:10190000EC01808D4217530708F0A9010E94A30B38
:101910001816190684F7298D3A8D281B390B3A8F32
:10192000298FEBCF0F931F93CF93DF931F92CDB7E8
:10193000DEB7FC01218D328D232B41F48FEF9FEF19
:101940000F90DF91CF911F910F9108958C0141E08D
:1019500050E0BE016F5F7F4FFC01808D0E94A30BA2
:10196000181619065CF7F801818D928D0197928FF8
:10197000818F898190E0E4CFCF93DF931F92CDB721
:10198000DEB741E050E0BE016F5F7F4FFC01848510
:101990000E94A30B1816190634F4898190E00F9069
:1019A000DF91CF9108958FEF9FEFF9CFFC018485F0
:1019B000843010F40C94A30B90E080E008950F9312
:1019C0001F93CF93DF9300D0CDB7DEB7FC01248502
:1019D0002430E0F48C0180E591E00E948C0022E04C
:1019E00030E0AE014F5F5F4F60E170E0F801848549
:1019F0000E94420789819A819827892798270F900A
:101A00000F90DF91CF911F910F91089590E080E0AA
:101A1000F6CF0F931F93CF93DF9300D0CDB7DEB7F0
:101A2000FC0124852430E0F48C0180E591E00E94E3
:101A30008C0022E030E0AE014F5F5F4F64E070E069
:101A4000F80184850E94420789819A819827892715
:101A500098270F900F90DF91CF911F910F910895CC
:101A600090E080E0F6CFDC0186E891E08D939D93D5
:101A700084E0FB0101900D928A95E1F70895EF92C1
:101A8000FF920F931F93CF93DF9300D000D0CDB779
:101A9000DEB78C017B01FB0184858430A8F086E8E9
:101AA00091E0F8019183808312821382148215825F
:101AB000C8010F900F900F900F90DF91CF911F9161
:101AC0000F91FF90EF90089580E591E00E948C00C7
:101AD00024E030E0AE014F5F5F4F6CE070E0F70153
:101AE00084850E944207BE016F5F7F4FC8010E943C
:101AF000330DDECF0F931F93CF93DF93CDB7DEB7B8
:101B000028970FB6F894DEBF0FBECDBF8C01D80169
:101B100059964D915C915A974115510551F0ED91AF
:101B2000FC91048CF58DE02D70E060E0C801099512
:101B3000EECFF801808D0E947C0B892BB1F148E03B
:101B400050E0BE016F5F7F4FD80158968C910E9484
:101B5000A30B18161906F4F4D801509684E0FE0180
:101B6000319601900D928A95E1F78D8190E0982F42
:101B700088272E81820F911DF801958B848B8F8190
:101B8000282F30E0322F22278885820F932F911D36
:101B9000928F818F28960FB6F894DEBF0FBECDBF0F
:101BA000DF91CF911F910F91089590E080E0F2CFE7
:101BB0004F925F926F927F928F929F92AF92BF925D
:101BC000CF92DF92EF92FF920F931F93CF93DF9309
:101BD000CDB7DEB763970FB6F894DEBF0FBECDBFAB
:101BE0007C016B013A01FB0120E090E080E06AE0BB
:101BF0003191332309F461C040ED430F4A3008F0BE
:101C00004DC0689FA001699F500D1124CA01C09763
:101C1000830F911D37FD9A958F3F910549F340F34E
:101C2000F7014281538164817581809121039091F4
:101C30002203A0912303B0912403481759076A0790
:101C40007B0709F40DC28701085F1F4F0E948702BE
:101C50006F7077277C5FC8010E948E09813009F080
:101C600004C286E891E09A838983F7018281938197
:101C7000A481B5818B839C83AD83BE8345E350E013
:101C8000BE016F5F7F4FC8010E942A04892BA9F50E
:101C9000D12CC12CC8010E94250617C03E3209F084
:101CA000BFCF233009F4BCCFD301A20FB11D1296D0
:101CB0008C932F5F90E080E09BCF233009F0B0CF72
:101CC000F3018583CC24C394D12CC60163960FB64F
:101CD000F894DEBF0FBECDBFDF91CF911F910F9162
:101CE000FF90EF90DF90CF90BF90AF909F908F903C
:101CF0007F906F905F904F9008950E948702F70148
:101D00007783668342E050E0B7016A5F7F4FC80186
:101D10000E949E0A81E090E09A83898342E050E02D
:101D2000BE016F5F7F4FC8010E949E0A80E091E074
:101D30009A83898342E050E0BE016F5F7F4FC80104
:101D40000E949E0A1A82198242E050E0BE016F5F33
:101D50007F4FC8010E949E0A42E050E0BE016F5FC3
:101D60007F4FC8010E949E0A42E050E0BE016F5FB3
:101D70007F4FC8010E949E0A5601F6018081882388
:101D800001F16501F60181912F01882311F08E3256
:101D9000B1F446018A189B081814190474F48D864E
:101DA00041E050E0BE01635F7F4FC8010E949E0A80
:101DB000A401B501C8010E949E0A5201DECF620152
:101DC000E1CF1D8641E050E0BE01635F7F4FC80157
:101DD0000E949E0AC12CDD24D394DA82C98242E09B
:101DE00050E0BE016F5F7F4FC8010E949E0ADA82F9
:101DF000C98242E050E0BE016F5F7F4FC8010E9480
:101E00009E0AC8010E949906892B09F441CFF3E08C
:101E1000AF2EB12C230122E0420E511CD4C0F70199
:101E20004281538164817581808D918DA28DB38DA6
:101E3000481759076A077B0709F008C1848D958DFB
:101E4000C59709F003C181A192A15DEFC52EDD24E4
:101E5000DA940C970CF4ADC04CE050E0BE016F5F1B
:101E60007F4FC8010E94730C8B819C819827892722
:101E700098279A8B898BF7014681578129813A816E
:101E80004217530709F0E7C097FFE5C08F709270C3
:101E90003BEFC32EDD24DA94892B09F08AC06F80D2
:101EA00078847624672476242AEFC22EDD24DA94FF
:101EB0006114710409F47DC0D12CC12C8D819E81E7
:101EC000982789279827C816D906F8F441E050E0EA
:101ED000BE01635F7F4FC8010E94730C4D85442390
:101EE00031F050E070E060E0C8010E94730C8D8515
:101EF0008111ECCF44E050E070E060E0C8010E9446
:101F0000730CFFEFCF1ADF0AD9CF912C812C41E05F
:101F100050E0BE016D5E7F4FC8010E94730C4B897B
:101F2000842F807C09F06CC0442331F050E070E0D5
:101F300060E0C8010E94730C8B898111E8CF42E0F8
:101F400050E0BE01615F7F4FC8010E94730C42E008
:101F500050E0BE01635F7F4FC8010E94730C44E0F4
:101F600050E070E060E0C8010E94730C42E050E075
:101F7000BE016F5E7F4FC8010E94730C8F859889E8
:101F800049895A898115914009F043C0CD84DE8486
:101F9000DC24CD24DC2481E0C816D104D1F5411520
:101FA000544009F04AC044E050E0B201C8010E9428
:101FB000730C21E0A21AB10809F46CCEFFEFCF1622
:101FC000DF0609F067CE0E9487023B014C01C80181
:101FD0000E947A0D181619060CF421CF0E94870270
:101FE000661977098809990969387341810591054E
:101FF00048F562E370E080E090E00E945502E7CF90
:1020000041E050E070E060E0C8010E94730C1B8A60
:1020100093CF54274527542770E060E0C8010E9401
:10202000730CFFEF8F1A9F0A6814790409F06FCFC1
:1020300096EFC92EDD24DA94BCCFE7EFCE2EDD2457
:10204000DA94B7CFCC24CA94DC2CB3CF6EEFC62E73
:10205000DD24DA94AECF4CEFC42EDD24DA94A9CF80
:102060008EEFC82EDD24DA9430CED12CC12C2DCEAB
:10207000CF92DF92EF92FF920F931F93CF93DF9354
:10208000CDB7DEB7AF970FB6F894DEBF0FBECDBFAA
:102090007C016A0106E811E01A8309831C861B860D
:1020A00088EE93E0A0E0B0E08D879E87AF87B88B85
:1020B0008CE191E09A878987188F0F8B198E1A8E81
:1020C0001B8E1C8E84E089A31BA70AA71CA61DA635
:1020D0001EA61FA68091150390911603A0911703C9
:1020E000B09118038EA39FA3A8A7B9A78B839C8345
:1020F000AD83BE8318861F82AE01465D5F4FCE0161
:1021000001960E94D80D81309105B1F4D701ED916F
:10211000FC910488F589E02D1DA30CA38CA59DA539
:10212000AEA5BFA58EA39FA3A8A7B9A7A601BE0170
:102130006C5D7F4FC7010995AF960FB6F894DEBF6F
:102140000FBECDBFDF91CF911F910F91FF90EF9008
:10215000DF90CF900895CF92DF92EF92FF920F938E
:102160001F93CF93DF93CDB7DEB7AF970FB6F89439
:10217000DEBF0FBECDBF8C016B017A0186E891E016
:102180009A8389831B821C821D821E821C861B8669
:1021900048EE53E060E070E04D875E876F87788B94
:1021A0002CE131E03A872987988F8F8B198E1A8E10
:1021B0001B8E1C8E24E029A39BA78AA71CA61DA604
:1021C0001EA61FA6D8011C968C91843060F40E9434
:1021D0003206882321F0F80184850E940D0684E0F0
:1021E000D8011C968C938091150390911603A091B1
:1021F0001703B09118038EA39FA3A8A7B9A78B8339
:102200009C83AD83BE8318861F82AE01465D5F4FFF
:10221000B601CE0101960E94D80D0097C1F0D801F9
:10222000ED91FC910684F785E02D86E891E09DA371
:102230008CA38CA59DA5AEA5BFA58EA39FA3A8A783
:10224000B9A7A701BE016C5D7F4FC8010995AF9684
:102250000FB6F894DEBF0FBECDBFDF91CF911F91B7
:102260000F91FF90EF90DF90CF9008957F928F9223
:102270009F92AF92BF92CF92DF92EF92FF920F9315
:102280001F93CF93DF93CDB7DEB7A6970FB6F89421
:10229000DEBF0FBECDBF8C01762E942E852E20E2A0
:1022A000A22ECE0101967C01DC01EA2D1D92EA9559
:1022B000E9F76801F3E4CF0ED11C86E891E09AA318
:1022C00089A38FEF8BA38CA38DA38EA343E450E04F
:1022D000BE016F5D7F4FC6010E942A04019609F47A
:1022E000BFC081E089838A8386E0B82EBB821C82CE
:1022F000D80114966D917D918D919C9117970E94B4
:10230000BE1D6D837E838F83988789869A8680E839
:1023100090E09C878B874CE150E0B701C6010E949A
:102320009E0AFE0137968AE1DF011D928A95E9F740
:102330004801B8E08B0E911CF401D70101900D9279
:10234000BA94E1F740E150E0B701C6010E949E0A4D
:10235000F7011192AA94E9F796E0A92EB12C40E278
:1023600050E0B701C6010E949E0AF1E0AF1AB10821
:10237000B1F783E6898392E89A8393E59B838C8304
:1023800085E38D8381E08E837F829DE3988797E04C
:1023900099878A8786E0F401DE011B9601900D92F1
:1023A0008A95E1F78CE0898B8A8B68E871E0CE0131
:1023B00043960E94CA1FD8011B966C91CE01499684
:1023C0000E948F00F8016485CE014B960E948F0019
:1023D000D8011D966C91CE014D960E948F004EE162
:1023E00050E0B701C6010E949E0AB3E07B121EC0F6
:1023F00082E3898384E08A83F80196859B839785AD
:102400009C8390899D8391899E8396E39F8388878F
:10241000828D8987838D8A87848D8B87858D8C8734
:102420004CE050E0B701C6010E949E0A87E3898311
:1024300086E08A8391E09B8393E09C838D838FE089
:102440008E838AE38F838BE388878FEF898749E0C8
:1024500050E0B701C6010E949E0AC6010E9499067B
:10246000A6960FB6F894DEBF0FBECDBFDF91CF9119
:102470001F910F91FF90EF90DF90CF90BF90AF90A2
:102480009F908F907F9008950F931F93CF93DF932A
:10249000EC0188819981009759F02A813B812617A8
:1024A000370730F081E0DF91CF911F910F910895B0
:1024B0008B016F5F7F4F0E94F01E009759F0998348
:1024C00088831B830A832C813D81232B59F7FC01D0
:1024D0001082E8CF80E0E7CF3F924F925F926F92F9
:1024E0007F928F929F92AF92BF92CF92DF92EF92A4
:1024F000FF920F931F93CF93DF93CDB7DEB7EA9789
:102500000FB6F894DEBF0FBECDBF7C012A013B01A0
:1025100069010E9487024B015C0187010D5B1F4F1F
:10252000C8010E947A0D181619069CF00E948702B5
:10253000681979098A099B094616570668067906BB
:1025400008F466C162E370E080E090E00E9455020A
:10255000E7CF42E250E0BE016F5F7F4FC8010E94AB
:10256000730C89818230D1F0312C832DEA960FB61D
:10257000F894DEBF0FBECDBFDF91CF911F910F91B9
:10258000FF90EF90DF90CF90BF90AF909F908F9093
:102590007F906F905F904F903F900895F8018489ED
:1025A00095898334910501F76D817E818F819885AE
:1025B0000E94BE1D4B015C01F60180829182A282C5
:1025C000B38246E050E0B701685F7F4FCE014D9681
:1025D0000E94AD1F892B41F6F70180819181A28174
:1025E000B38188169906AA06BB0608F4BDCF84817C
:1025F0009581A681B78188159905AA05BB0508F4C0
:10260000B3CF89899A89AB89BC8986879787A08B44
:10261000B18B4EEC50E070E060E0C8010E94730C9A
:10262000312CC701829698AB8FA7F701B696FAAB0B
:10263000E9AB08969CAB8BAB67019AE1C90ED11C44
:10264000BD96FEABEDABC701429698AF8FABFD9741
:10265000FAAFE9AF4701FEE18F0E911CF801818DC1
:10266000928D181619060CF080CFC8010E94920CAA
:102670008333910509F4B2C014F58130910509F452
:1026800064C044F4892B51F3C8010E94920CAC0140
:10269000552775C08330910509F462C00697A1F7EC
:1026A000C8010E94920CB82E44E050E0B401C80169
:1026B0000E94730CEB2DE450FF0BAF0160C08A3316
:1026C000910509F45FC084F585339105B1F1C69792
:1026D000D9F6C8010E94920C5C01B601CE01899620
:1026E0000E94330D8BA59CA5ADA5BEA5892B8A2B79
:1026F0008B2BB1F0EDA9FEA94080518062807380E0
:10270000B601CE0183960E94330D8DA19EA1AFA18B
:10271000B8A5A501481659066A067B0609F0B8CF88
:1027200044E050E0B60118C08B33910509F440C075
:102730008F3F910509F492CFA7CFC8010E94920C58
:10274000C8010E94920C382E89CFC8010E94920CB9
:1027500044E050E06FA978ADC8010E94730C7ECFB1
:10276000C8010E94920CB82E44E050E069AD7AADE9
:10277000C8010E94730C8B2D8450990BAC0170E042
:1027800060E0EACFC8010E94920C44E050E069A9E1
:102790007AA9C8010E94730CF70166A177A180A5F0
:1027A00091A50E94BE1D66A377A380A791A756CFCF
:1027B000C8010E94920C44E050E06BA97CA9C801BA
:1027C0000E94730CF70162A573A584A595A50E94CC
:1027D000BE1D62A773A784A795A740CFC8010E941A
:1027E000920C44E050E06FA578A9C8010E94730CD8
:1027F000F70162A173A184A195A10E94BE1D62A3ED
:1028000073A384A395A366A777A780AB91AB26CFCC
:1028100033243A94AACE1F920F920FB60F9211242E
:102820002F933F934F935F936F937F938F939F93D8
:10283000AF93BF93EF93FF9388E592E00E9424014A
:10284000FF91EF91BF91AF919F918F917F916F9188
:102850005F914F913F912F910F900FBE0F901F905E
:1028600018951F920F920FB60F9211242F938F93EA
:102870009F93EF93FF93E0916802F091690280814A
:10288000E0916E02F0916F0282FD1BC090818091F9
:1028900071028F5F8F7320917202821741F0E09175
:1028A0007102F0E0E85AFD4F958F80937102FF911D
:1028B000EF919F918F912F910F900FBE0F901F90CE
:1028C00018958081F4CF1F920F920FB60F921124AA
:1028D0002F933F938F939F93AF93BF938091C301A7
:1028E0009091C401A091C501B091C6013091C2017F
:1028F00023E0230F2D3758F50196A11DB11D20931C
:10290000C2018093C3019093C401A093C501B09309
:10291000C6018091C7019091C801A091C901B091F1
:10292000CA010196A11DB11D8093C7019093C801F2
:10293000A093C901B093CA01BF91AF919F918F91AC
:102940003F912F910F900FBE0F901F90189526E882
:10295000230F0296A11DB11DD2CFCF92DF92EF922D
:10296000FF920F931F93E82FF92F05C00150110913
:102970002109310961F1908196239417B9F305C0BB
:10298000015011092109310911F190819623941305
:10299000F7CFC12CD12CE12CF12C0AC08FEFC81A33
:1029A000D80AE80AF80A0C151D052E053F0579F02E
:1029B00080818623841791F36C2D7D2D8E2D9F2D84
:1029C0001F910F91FF90EF90DF90CF90089560E0FE
:1029D00070E080E090E01F910F91FF90EF90DF900A
:1029E000CF900895CF93E8E5F2E01382128248EE8B
:1029F00053E060E070E0448355836683778386E428
:102A000091E09183808385EC90E09587848784ECC6
:102A100090E09787868780EC90E0918B808B81ECAB
:102A200090E0938B828B82EC90E0958B848B86EC8C
:102A300090E0978B868B118E128E138E148EE5EF9D
:102A4000F2E086E891E091838083128213821482FF
:102A50001582EBEFF2E0918380831282138214825D
:102A60001582E1E0F3E09183808312821382148265
:102A70001582E7E0F3E0918380831282138214824F
:102A80001582EDE0F3E09183808312821382148239
:102A90001582E9E1F3E0918380831282138214822C
:102AA0001582E3E1F3E09183808312821382148222
:102AB0001582EFE1F3E09183808312821382148206
:102AC0001582E5E2F3E091838083128213821482FF
:102AD0001582ECE4F3E091838083128213821482E6
:102AE0001582E6E4F3E091838083A0ECA28338EAC8
:102AF000338321E02483B5E6B583E0E4F3E09183FA
:102B00008083C0E5C283B383B8E9B483BDE2B583F3
:102B1000EAE3F3E091838083A283338314822583E5
:102B2000EBE2F3E01382128244835583668377835A
:102B300088E591E09183808384E0848788EE93E048
:102B400096878587CF910895CF93DF93CDB7DEB772
:102B50006C970FB6F894DEBF0FBECDBF789484B5E6
:102B6000826084BD84B5816084BD85B5826085BD89
:102B700085B5816085BD80916E00816080936E0017
:102B80001092810080918100826080938100809109
:102B900081008160809381008091800081608093BA
:102BA00080008091B10084608093B1008091B0007A
:102BB00081608093B00080917A00846080937A0075
:102BC00080917A00826080937A0080917A0081609F
:102BD00080937A0080917A00806880937A001092C6
:102BE000C100E0916802F091690282E08083E09187
:102BF0006402F09165021082E0916602F091670232
:102C00008FEC808310927002E0916C02F0916D0263
:102C100086E08083E0916A02F0916B02808180619E
:102C20008083E0916A02F0916B02808188608083EA
:102C3000E0916A02F0916B02808180688083E0916C
:102C40006A02F0916B0280818F7D808380913102D6
:102C500081112AC0109219021092180288EE93E096
:102C6000A0E0B0E080931A0290931B02A0931C0294
:102C7000B0931D028CE191E09093170280931602AD
:102C800086E891E090932502809324021092260218
:102C900010922702109228021092290284E0809359
:102CA0002E0281E08093310283ED91E09093D20176
:102CB0008093D1018091D0018111ADC060E372E0B9
:102CC00080E090E00E945502DFB6F89404EA10E03C
:102CD000E8EBEE2EE0E0FE2E8091CE01811125C0C2
:102CE000F8018491F7019491E82FF0E0EE0FFF1FB7
:102CF000EA57FF4FA591B4918C91982321F461E09C
:102D00008AE00E94B30161E08AE00E94FF018CB575
:102D100080618CBD8CB580648CBD61E08DE00E94CB
:102D2000FF0161E08BE00E94FF018091CE018F5F87
:102D30008093CE01DFBEF8010491E02FF0E0EE0FAA
:102D4000FF1FE458FF4F859194919093CD0180939C
:102D5000CC01F701E490E092CB0161E08AE00E94AF
:102D6000FF010E94AD0280E591E00E948C0084E3A7
:102D70008093570280E80E9479030E94DD06882331
:102D800009F484C188E00E9479030E94CA06883051
:102D900009F07CC180E10E9479030E94CA0680315B
:102DA00009F074C180E00E9479030E94CA06182FBE
:102DB00081116CC141E050E0BE016F5F7F4F8FE138
:102DC00090E00E9455058981833009F05FC180E45D
:102DD0008093CF0142E06EE170E0812F0E94D50325
:102DE00042E06FE170E0812F0E94D5031F5F143035
:102DF00089F740E06EE170E0812F0E94D50340E04A
:102E00006FE170E0812F0E94D5031F5F183089F7B2
:102E100081E08093D00180E591E00E948C0046E043
:102E200050E060E071E089E090E00E94C90286E82D
:102E300091E09A8389831B821C821D821E8244E05A
:102E400050E0BE016D5F7F4F8FE090E00E94C902AD
:102E50000091D1011091D201D80192961D921D923C
:102E60001D921C929597F80116A217A210A611A602
:102E70009A961D921D921D921C929D9780E69AEE45
:102E8000A0E0B0E086AB97ABA0AFB1AF80EA9FE027
:102E9000A0E0B0E082AF93AFA4AFB5AF3E9684E1BF
:102EA000DF011D928A95E9F786E0E0E0F1E0D801C4
:102EB000189601900D928A95E1F7F801EE5BFF4FAD
:102EC000FC8FEB8F10820E94661B2FEC37E040E0F6
:102ED00050E00E94EE1CDC01CB010196A11DB11D4A
:102EE000F80184839583A683B78380839183A2832B
:102EF000B3835801F3E4AF0EB11CC5010E9425064F
:102F000064E470E0C5010E948E09882309F427C19A
:102F10000E9487022B013C0148EEC42E43E0D42ED0
:102F2000E12CF12C52E0252E912C812CAB8DBC8D07
:102F30008C918330B9F181118EC2F8018481958121
:102F4000A681B7810196A11DB11D84839583A683B7
:102F5000B7830E9487026419750986099709A7013A
:102F600096010E94571DA90161E0C8010E94361117
:102F700081E0AB8DBC8D8C93F1E08F169104B1F2A2
:102F80000E9487026419750986099709D801D696A7
:102F90002D913D914D915C91D997261737074807A0
:102FA000590710F6C5010E942506F8018481958114
:102FB000A681B7810196A11DB11D84839583A68347
:102FC000B7830E948702F801FE9660837183828333
:102FD00093838A94892809F0C2C080E591E00E9419
:102FE0008C000091D1011091D201B801625F7F4F36
:102FF000CE0101960E94330D44E050E0BE016D5FAA
:103000007F4F8FE090E00E94C902B8016A5E7F4F57
:10301000CE0101960E94330D44E050E0BE016D5F89
:103020007F4F81E090E00E94C902B8016E5E7F4F41
:10303000CE0101960E94330D44E050E0BE016D5F69
:103040007F4F85E090E00E94C902B801625E7F4F29
:10305000CE0101960E94330D8B819C81AD81BE8192
:103060008093150390931603A0931703B09318034E
:103070000E9430027F7380910601909107016827BA
:103080007927709307016093060169C087E38093F5
:10309000570280E80E9479030E94DD06882329F107
:1030A00088E00E9479030E94CA068830F1F480E12A
:1030B0000E9479030E94CA06182F8031B1F480E083
:1030C0000E9479030E94CA0681110FC041E050E0BE
:1030D000BE016F5F7F4F89E390E00E9455058981B3
:1030E000843019F41093CF0193CE83E38093570279
:1030F00080E80E9479030E94DD06882371F180E157
:103100000E9479030E94CA06803139F582E10E944B
:1031100079030E94CA06823101F580E00E9479039A
:103120000E94CA06811119C084E08093CF0115E581
:103130001A8F41E050E0BE01665E7F4F8BE190E068
:103140000E94C902198F41E050E0BE01675E7F4FC7
:103150008AE190E00E94C9025BCE1092570268EEAD
:1031600073E080E090E00E94550286E891E09A8347
:1031700089838091480390914903A0914A03B091BB
:103180004B038B839C83AD83BE8349E853E1CE011F
:1031900001967C01BC018BE293E00E940C096BE27A
:1031A00073E0C7010E943F0D68E572E0C7010E940D
:1031B0000B056FE871E088E592E00E94B00462E9D7
:1031C00071E088E592E00E94B0046FE871E088E564
:1031D00092E00E94B00461E083E00E94FF0160E0A1
:1031E00082E00E94FF0161E085E00E94FF0193E020
:1031F000692E712C20EB222E20E0322E3CE9432E4A
:1032000030E0532E40E0842E40E0942E60E083E0D6
:103210000E94B301C3010197F1F761E083E00E94CE
:10322000B30183E290E00197F1F760E083E00E9450
:10323000B301F1016491F2018491E82FF0E0EE0F07
:10324000FF1FE057FF4F8591949100E412E42FE0B7
:1032500030E0462F0E94AD1461157105810591057E
:1032600029F06F5F7F4F8F4F9F4F9F700E94F51B1C
:1032700026E933E44BE05DE30E94301C20E030E0BF
:1032800040E05FE30E94301C0E94881D70933A0268
:103290006093390262EA71E088E592E00E94B0042E
:1032A000A0903902B0903A020B2C000CCC08DD083B
:1032B0002AE0B601A501D7FE0DC06DE288E592E0D7
:1032C0000E94460144275527BA014A195B096C0937
:1032D0007D092AE088E592E00E94BF046DEA71E072
:1032E00088E592E00E94B0046FE871E088E592E022
:1032F0000E94B0048091390290913A028E3191057A
:103300000CF09DC01C8A1B8A1E8A1D8A188E1F8A7B
:103310004AE0B7010E94BE1BF70101900020E9F7C7
:1033200031978F010E191F09B801CE0143960E94F3
:10333000441281115BC1CE0143960E949E041A8201
:1033400019821C821B821E821D8260E170E0C7010F
:103350000E944412811152C1C7010E949E04CB8871
:10336000DC88C114D10409F454C10F89188D0115EA
:103370001105B1F08D819E81080F191FB801C70199
:103380000E944412882309F444C129813A818D8125
:103390009E81B601820F931F0E94CA1F1E830D8358
:1033A0000D811E810E5F1F4FB801C7010E9444129C
:1033B000811133C1C7010E949E044D815E816981E4
:1033C0007A818BE293E00E94D80A89819A810097E2
:1033D00011F00E94671E8B899C89009711F00E9452
:1033E000671E1AE061E085E00E94B30161E070E0D1
:1033F00080E090E00E94550260E085E00E94B30109
:1034000061E070E080E090E00E945502115051F7B9
:103410001AE061E085E00E94B30162E070E080E0C4
:1034200090E00E94550260E085E00E94B30162E0F6
:1034300070E080E090E00E945502115051F7811435
:10344000910409F4E3CE0E941001882309F4DECE32
:103450000E940000DBCE8430F9F4F801848195816C
:10346000A681B7810196A11DB11D84839583A68392
:10347000B7830E9487026419750986099709A70115
:1034800096010E94571DA90163E0C8010E943611F0
:10349000AB8DBC8D2C9270CD813059F5F80142ADC9
:1034A00053AD64AD75AD9E012F5F3F4FC8010E94C3
:1034B0006C12382EF2E08F1392C089819A81AB8111
:1034C000BC81F80184839583A683B7830E94870219
:1034D0006419750986099709A70196010E94571D6D
:1034E000A90163E0C8010E943611AB8DBC8D3C92EE
:1034F00043CD823009F040CDF80142AD53AD64AD0B
:1035000075AD9E012F5F3F4FC8010E946C12382E8F
:10351000F5E08F135DC0E3E0AB8DBC8DEC93F8015B
:1035200082A193A1A4A1B5A1892B8A2B8B2B41F455
:1035300084E893E0A0E0B0E082A393A3A4A3B5A3A2
:10354000F80186A197A1A0A5B1A5892B8A2B8B2B69
:1035500061F482A193A1A4A1B5A1B695A795979571
:10356000879586A397A3A0A7B1A7F80182A593A5E5
:10357000A4A5B5A5892B8A2B8B2BA9F482A193A195
:10358000A4A1B5A1AC01BD0123E07695679557953F
:1035900047952A95D1F7841B950BA60BB70B82A7ED
:1035A00093A7A4A7B5A7F80186A197A1A0A5B1A547
:1035B00086A797A7A0ABB1AB82A593A5A4A5B5A5F7
:1035C00082AB93ABA4ABB5AB88248394912CD4CCC1
:1035D000F6E08F1304C0AB8DBC8D1C92CDCCBFEF39
:1035E0003B12CACCEB8DFC8D1082C6CC188F0F8B92
:1035F000B7018B899C890E94CA1FA1CE80E190E00F
:103600009E838D8361EB71E089819A810E94CA1F3C
:10361000A6CEC7010E949E04C3CE29813A818D8126
:103620009E816FE871E0820F931F0E94CA1F1E8364
:103630000D83C3CE8F929F92AF92BF92CF92DF92B3
:10364000EF92FF92CF93DF93EC01688179818A81B9
:103650009B81611571058105910521F464E279ED85
:103660008BE597E02DE133EF41E050E00E94EE1C46
:1036700049015A019B01AC01A7EAB1E40E940D1D6A
:103680006B017C01ACEEB4EFA50194010E941B1DFF
:10369000C60ED71EE81EF91EF7FE06C081E0C81A46
:1036A000D108E10880E8F80AC882D982EA82FB8260
:1036B000C701B6019F77DF91CF91FF90EF90DF9028
:1036C000CF90BF90AF909F908F9008958F929F92D0
:1036D000AF92BF92CF92DF92EF92FF92609108017A
:1036E0007091090180910A0190910B01611571059A
:1036F0008105910521F464E279ED8BE597E02DE1F8
:1037000033EF41E050E00E94EE1C49015A019B0159
:10371000AC01A7EAB1E40E940D1D6B017C01ACEE87
:10372000B4EFA50194010E941B1DC60ED71EE81E12
:10373000F91EF7FE06C081E0C81AD108E10880E84A
:10374000F80AC0920801D0920901E0920A01F092B1
:103750000B01C701B6019F77FF90EF90DF90CF90EC
:10376000BF90AF909F908F900895609308017093E1
:10377000090180930A0190930B010895BB274A30F9
:1037800031F4992322F4BDE2909581959F4F0C94DA
:10379000CA1BBB27FB015527AA27880F991FAA1F01
:1037A000A41710F0A41B83955051B9F7A05DAA335C
:1037B00008F0A95DA193009779F7B111B193119227
:1037C000CB010C94E31BDC01FC01672F7191772383
:1037D000E1F7329704C07C916D9370836291AE17CC
:1037E000BF07C8F30895E89409C097FB3EF490958D
:1037F0008095709561957F4F8F4F9F4F9923A9F0CA
:10380000F92F96E9BB279395F69587957795679558
:10381000B795F111F8CFFAF4BB0F11F460FF1BC09C
:103820006F5F7F4F8F4F9F4F16C0882311F096E92F
:1038300011C0772321F09EE8872F762F05C06623DD
:1038400071F096E8862F70E060E02AF09A95660F96
:10385000771F881FDAF7880F9695879597F908954F
:103860000E94431C0C94B41C0E94A61C38F00E94B9
:10387000AD1C20F0952311F00C949D1C0C94A31CFE
:1038800011240C94E81C0E94C51C70F3959FC1F391
:10389000950F50E0551F629FF001729FBB27F00DFE
:1038A000B11D639FAA27F00DB11DAA1F649F662753
:1038B000B00DA11D661F829F2227B00DA11D621FA2
:1038C000739FB00DA11D621F839FA00D611D221F5C
:1038D000749F3327A00D611D231F849F600D211D40
:1038E000822F762F6A2F11249F5750409AF0F1F0C3
:1038F00088234AF0EE0FFF1FBB1F661F771F881F2C
:1039000091505040A9F79E3F510580F00C949D1CAA
:103910000C94E81C5F3FE4F3983ED4F386957795CA
:103920006795B795F795E7959F5FC1F7FE2B880FD1
:10393000911D9695879597F9089597F99F6780E867
:1039400070E060E008959FEF80EC089500240A94F1
:103950001616170618060906089500240A9412166A
:103960001306140605060895092E0394000C11F49D
:10397000882352F0BB0F40F4BF2B11F460FF04C04A
:103980006F5F7F4F8F4F9F4F089557FD9058440FA3
:10399000551F59F05F3F71F04795880F97FB991FAE
:1039A00061F09F3F79F0879508951216130614066B
:1039B000551FF2CF4695F1DF08C0161617061806F8
:1039C000991FF1CF86957105610508940895E894D3
:1039D000BB2766277727CB0197F90895052E97FB1C
:1039E0001EF400940E94051D57FD07D00E94571D2C
:1039F00007FC03D04EF40C94051D5095409530956E
:103A000021953F4F4F4F5F4F08959095809570954A
:103A100061957F4F8F4F9F4F08950E94791DA59FFD
:103A2000900DB49F900DA49F800D911D11240895B9
:103A3000B7FF0C940D1D0E940D1D821B930B089562
:103A40002F923F924F925F926F927F928F929F92AE
:103A5000AF92BF92CF92DF92EF92FF920F931F939C
:103A6000CF93DF93CDB7DEB7CA1BDB0B0FB6F8944D
:103A7000DEBF0FBECDBF09942A88398848885F848D
:103A80006E847D848C849B84AA84B984C884DF80FE
:103A9000EE80FD800C811B81AA81B981CE0FD11DE2
:103AA0000FB6F894DEBF0FBECDBFED010895A1E2C1
:103AB0001A2EAA1BBB1BFD010DC0AA1FBB1FEE1FA8
:103AC000FF1FA217B307E407F50720F0A21BB30BF3
:103AD000E40BF50B661F771F881F991F1A9469F76F
:103AE00060957095809590959B01AC01BD01CF01CB
:103AF0000895A29FB001B39FC001A39F700D811DC7
:103B00001124911DB29F700D811D1124911D0895E6
:103B10000E948F1D6894B1110C94E81C08950E94B6
:103B2000CD1C88F09F5798F0B92F9927B751B0F066
:103B3000E1F0660F771F881F991F1AF0BA95C9F731
:103B400014C0B13091F00E94E71CB1E008950C94CC
:103B5000E71C672F782F8827B85F39F0B93FCCF37F
:103B6000869577956795B395D9F73EF490958095AE
:103B7000709561957F4F8F4F9F4F089569279627C6
:103B800069277827872778270895EE0FFF1F05906C
:103B9000F491E02D09940F931F93CF93DF9382301C
:103BA000910510F482E090E0E0915403F091550308
:103BB00030E020E0B0E0A0E0309799F42115310525
:103BC00009F44AC0281B390B24303105D8F58A8105
:103BD0009B816115710589F1FB0193838283FE014D
:103BE00011C0408151810281138148175907E0F0CB
:103BF0004817590799F4109761F012960C93129791
:103C000013961C933296CF01DF91CF911F910F91A4
:103C100008950093540310935503F4CF21153105F3
:103C200051F04217530738F0A901DB019A01BD0199
:103C3000DF01F801C1CFEF01F9CF909355038093D5
:103C40005403CDCFFE01E20FF31F819391932250D5
:103C5000310939832883D7CF209152033091530300
:103C6000232B41F420910E0130910F013093530327
:103C70002093520320910C0130910D012115310543
:103C800041F42DB73EB74091100150911101241B12
:103C9000350BE0915203F0915303E217F307A0F4C0
:103CA0002E1B3F0B2817390778F0AC014E5F5F4F92
:103CB0002417350748F04E0F5F1F5093530340936E
:103CC0005203819391939FCFF0E0E0E09CCFCF939C
:103CD000DF930097E9F0FC01329713821282A091E2
:103CE0005403B0915503ED0130E020E01097A1F4AA
:103CF00020813181820F931F209152033091530311
:103D00002817390709F061C0F0935303E093520379
:103D1000DF91CF910895EA01CE17DF07E8F54A81D8
:103D20005B819E0141155105B1F7E901FB83EA83EF
:103D300049915991C40FD51FEC17FD0761F480819B
:103D400091810296840F951FE9019983888382816E
:103D500093819B838A83F0E0E0E012968D919C91A1
:103D600013970097B9F52D913C911197CD010296CB
:103D7000820F931F20915203309153032817390764
:103D800039F6309751F51092550310925403B093C1
:103D90005303A0935203BCCFD383C283408151818C
:103DA000840F951FC817D90761F44E5F5F4F888154
:103DB0009981480F591F518340838A819B81938346
:103DC00082832115310509F0B0CFF0935503E093BC
:103DD00054039ECFFD01DC01C0CF13821282D7CFE6
:103DE000B0E0A0E0E6EFFEE10C94221D8C0100970C
:103DF00051F4CB010E94CB1D8C01C801CDB7DEB7B9
:103E0000E0E10C943E1DFC01E60FF71F9C012250DF
:103E10003109E217F30708F49DC0D901CD91DC9177
:103E20001197C617D70798F0C530D10530F3CE01EA
:103E300004978617970708F3C61BD70B2297C193E1
:103E4000D1936D937C93CF010E94671ED6CF5B0107
:103E5000AC1ABD0A4C018C0E9D1EA0915403B0916A
:103E60005503512C412CF12CE12C109731F5809108
:103E70005203909153038815990509F05CC04616CA
:103E8000570608F058C080910C0190910D010097E1
:103E900041F48DB79EB74091100150911101841BE0
:103EA000950BE817F90708F055C0F0935303E0931A
:103EB0005203F90171836083A0CF8D919C9111977A
:103EC00012966C90129713967C901397A815B905CB
:103ED00059F56C0142E0C40ED11CCA14DB0420F178
:103EE000AC014A195B09DA011296159780F06282DB
:103EF000738251834083D9016D937C93E114F10463
:103F000071F0D7011396FC93EE93129776CF229619
:103F10008C0F9D1FF90191838083F301EFCFF09304
:103F20005503E093540369CF4816590608F42C0151
:103F30007D01D3019ACFCB010E94CB1D7C0100975C
:103F400049F0AE01B8010E94BA1FC8010E94671E65
:103F5000870153CF10E000E050CFFB01DC0104C02B
:103F60008D910190801921F441505040C8F7881B71
:103F7000990B0895FB01DC0102C001900D924150A4
:103F80005040D8F70895DC0101C06D934150504076
:103F9000E0F70895FB01DC0101900D920020E1F7AC
:103FA0000895F894FFCFDEADBEEFFEED00C0010036
:103FB000000000005603800001005E0000000000C9
:103FC0000000F2039E0A8004A500A100920C1907CC
:103FD0008E09290825062A04381099067A0D730CD3
:103FE0007904690465046104000000004601A6002C
:103FF000D30093010401E200F60000000000130466
:10400000D80A950A800A9A0BBC0C28070C09AB1039
:10401000D60C60063E0696049304910408048704B7
:10402000090D3F0DDF0C8304000000000B0557490C
:104030005A6E6574000D0A00636F6E6E6563746975
:104040006F6E20646F656E0044697374616E6365A2
:104050003A200020636D00546865206469737461C0
:084060006E63652069733A00EC
:107E0000112484B714BE81FFF0D085E080938100F7
:107E100082E08093C00088E18093C10086E0809377
:107E2000C20080E18093C4008EE0C9D0259A86E02C
:107E300020E33CEF91E0309385002093840096BBD3
:107E4000B09BFECF1D9AA8958150A9F7CC24DD24C4
:107E500088248394B5E0AB2EA1E19A2EF3E0BF2EE7
:107E6000A2D0813461F49FD0082FAFD0023811F036
:107E7000013811F484E001C083E08DD089C08234E0
:107E800011F484E103C0853419F485E0A6D080C0E4
:107E9000853579F488D0E82EFF2485D0082F10E0AE
:107EA000102F00270E291F29000F111F8ED06801E7
:107EB0006FC0863521F484E090D080E0DECF843638
:107EC00009F040C070D06FD0082F6DD080E0C81688
:107ED00080E7D80618F4F601B7BEE895C0E0D1E017
:107EE00062D089930C17E1F7F0E0CF16F0E7DF06D8
:107EF00018F0F601B7BEE89568D007B600FCFDCFD4
:107F0000A601A0E0B1E02C9130E011968C91119780
:107F100090E0982F8827822B932B1296FA010C0160
:107F200087BEE89511244E5F5F4FF1E0A038BF0790
:107F300051F7F601A7BEE89507B600FCFDCF97BE46
:107F4000E89526C08437B1F42ED02DD0F82E2BD052
:107F50003CD0F601EF2C8F010F5F1F4F84911BD097
:107F6000EA94F801C1F70894C11CD11CFA94CF0C13
:107F7000D11C0EC0853739F428D08EE10CD085E9AC
:107F80000AD08FE07ACF813511F488E018D01DD067
:107F900080E101D065CF982F8091C00085FFFCCF94
:107FA0009093C60008958091C00087FFFCCF809118
:107FB000C00084FD01C0A8958091C6000895E0E648
:107FC000F0E098E1908380830895EDDF803219F02E
:107FD00088E0F5DFFFCF84E1DECF1F93182FE3DFCA
:107FE0001150E9F7F2DF1F91089580E0E8DFEE27F6
:047FF000FF270994CA
:027FFE00040479
:00000001FF
